:10000000000C030000000000A02100000218BE1236
:1000100020BD021CDBFFFF021C61E47889F608F6B4
:10002000788DF608F608F608F67887F608F67885EB
:10003000F608F67893F608F6900018E0FF120D67C0
:10004000120F4F121CDB120B317F0A121FDE789544
:10005000A60608A60722FF022191AD07ED25E024A0
:1000600068F582E43400F583E07F00FEED25E024AE
:1000700069F582E43400F583E02FFFE43EFE2202BE
:1000800008E2900194EFF0E4900197F0A3F07F0173
:10009000121FDE900199EEF0A3EFF0D37896E6946C
:1000A0000018E69400400708E616187001167896C6
:1000B000E618466016900199E0FEA3E07802CEC3F0
:1000C00013CE13D8F9F0EE900199F0E49001AFF05F
:1000D000900194F0900010E0FF900194E0FEC39F27
:1000E0004003020440900091E0C394F05013EE25C9
:1000F000E02436F9D3E7941419E79400400302038F
:1001000037900194E0FF12004E900197EEF0A3EFBC
:10011000F0900194E0FF25E02446F9EF25E0245516
:10012000F8E6FE08E6FFD397EE199750030201ADFB
:10013000E025E02446F8C3EF96FDEE1896FC90010A
:1001400097E0C313FEA3E013FFD3ED9FEC9E40693D
:100150009001AFE004F09001AEE0705D900194F08A
:10016000E0FF25E02453F582E43401F583E4F0A3B5
:10017000F0EF25E025E02423F582E43401F5831235
:1001800007FE000000009001947401F0E0FF25E0FC
:100190002453F582E43401F583E4F0A3F0EF25E085
:1001A00025E02423F582E43401F5831207FE0000E4
:1001B00000009001AE7401F0229001AEE0700302E5
:1001C000029F900194E0FF25E02453F582E434017E
:1001D000F583E475F0011205C6EF25E025E0242340
:1001E000F582E43401F583C083C082E0F8A3E0F92E
:1001F000A3E0FAA3E0FBC000900194E025E02445D1
:10020000F8E6FE08E6FFE4FCFDD000EB2FFFEA3E37
:10021000FEED39FDEC38FCD082D0831207F290015C
:1002200094E025E02453F582E43401F583E0FEA355
:10023000E0FFD39407EE94004071AB07AA06E4F9FF
:10024000F8900194E025E025E02423F582E43401D0
:10025000F583E0FCA3E0FDA3E0FEA3E0FF12067D32
:10026000900194E0FD25E02455F8A60608A607EDC8
:1002700025E02453F582E43401F583E4F0A3F0EDA6
:1002800025E025E02423F582E43401F5831207FEFE
:1002900000000000900194E06005E49001AEF07F62
:1002A0000A121FDE7895A60608A6079001AEE06048
:1002B00003020437900194E0FF25E02453F582E423
:1002C0003401F583E0FCA3E04C701FEF25E02445EA
:1002D000F8E6FC08E6FDEF25E02443F582E434016E
:1002E000F583ECF0A3EDF0020363900194E0FD25AB
:1002F000E02443F582E43401F583E0FEA3E0FFED62
:1003000025E02445F8E6FC08E6FD122161AC06ADC7
:1003100007900197E0C313FEA3E013FFD3ED9FEC1A
:100320009E404C900194E0FF25E02445F8E6FC084F
:10033000E6FDEF25E02443F582E43401F583ECF09B
:10034000A3EDF0900194E0FF25E02453F582E4341E
:1003500001F583E4F0A3F0EF25E025E02423F58206
:10036000E43401F5831207FE000000000204379018
:100370000194E0FF25E02445F8E6FC08E6FDA3EC47
:10038000F0A3EDF07896E618467064EF25E024556A
:10039000F8E6FE08E6FF122161900197E0FAA3E07B
:1003A000FBC39FEA9E5048900194E0FF25E024455E
:1003B000F8E6F58308E6F582EF25E02455F8E6FC3B
:1003C00008E6FDC39582EC9583500CEAC313FEEB5F
:1003D000132DFFEC3E8011900197E0C313FEA3E0C4
:1003E00013FFC3ED9FFFEC9E900195F0A3EFF090FB
:1003F0000194E025E025E02423F582E43401F5832F
:10040000C083C082E0F8A3E0F9A3E0FAA3E0FB9088
:100410000195E0FEA3E0FFE4FCFDEB2FFFEA3EFECA
:10042000ED39FDEC38FCD082D0831207F2900194B4
:10043000E025E02453F582E43401F583E475F0010E
:100440001205C6900194E004F00200C8E49001AFE8
:10045000F0900194F0900010E0FF900194E0FEC352
:100460009F502EEE25E02453F582E43401F583E01D
:10047000FEA3E0FF900199E0FCA3E0FDD3EF9DEE29
:100480009C40069001AFE004F0900194E004F080FD
:10049000C49001AFE07003020518E4900194F0905D
:1004A0000010E0FF900194E0FEC39F5077EE25E03E
:1004B0002453F582E43401F583E0FEA3E0FF4E60AF
:1004C0005AAB07AA06E4F9F8900194E025E025E08C
:1004D0002423F582E43401F583E0FCA3E0FDA3E0EE
:1004E000FEA3E0FF12067D900194E0FD25E0245577
:1004F000F8A60608A607ED25E02453F582E43401AA
:10050000F583E4F0A3F0ED25E025E02423F582E473
:100510003401F5831207FE00000000900194E0040E
:10052000F002049322BB010689828A83E0225002F2
:10053000E722BBFE02E32289828A83E49322BB0185
:100540000CE58229F582E5833AF583E0225006E93D
:100550002582F8E622BBFE06E92582F8E222E58242
:1005600029F582E5833AF583E49322EF8DF0A4A880
:10057000F0CF8CF0A428CE8DF0A42EFE22BC000B70
:10058000BE0029EF8DF084FFADF022E4CCF875F0C9
:1005900008EF2FFFEE33FEEC33FCEE9DEC984005A8
:1005A000FCEE9DFE0FD5F0E9E4CEFD22EDF8F5F06E
:1005B000EE8420D21CFEADF075F008EF2FFFED3376
:1005C000FD4007985006D5F0F222C398FD0FD5F0F4
:1005D000EA22C5F0F8A3E028F0C5F0F8E58215821C
:1005E00070021583E038F022A3F8E0C5F025F0F0A2
:1005F000E582158270021583E0C838F0E822E88FA2
:10060000F0A4CC8BF0A42CFCE98EF0A42CFC8AF096
:10061000EDA42CFCEA8EF0A4CDA8F08BF0A42DCC98
:100620003825F0FDE98FF0A42CCD35F0FCEB8EF0F1
:10063000A4FEA9F0EB8FF0A4CFC5F02ECD39FEE4D7
:100640003CFCEAA42DCE35F0FDE43CFC2275F0081C
:10065000758200EF2FFFEE33FECD33CDCC33CCC50A
:100660008233C5829BED9AEC99E58298400CF58225
:10067000EE9BFEED9AFDEC99FC0FD5F0D6E4CEFB97
:10068000E4CDFAE4CCF9A88222B800C1B90059BA85
:10069000002DEC8BF084CFCECDFCE5F0CBF97818B3
:1006A000EF2FFFEE33FEED33FDEC33FCEB33FB10AD
:1006B000D703994004EB99FB0FD8E5E4F9FA2278C7
:1006C00018EF2FFFEE33FEED33FDEC33FCC933C9D9
:1006D00010D7059BE99A4007EC9BFCE99AF90FD8E3
:1006E000E0E4C9FAE4CCFB2275F010EF2FFFEE3303
:1006F000FEED33FDCC33CCC833C810D7079BEC9A42
:10070000E899400AED9BFDEC9AFCE899F80FD5F0CA
:10071000DAE4CDFBE4CCFAE4C8F922EB9FF5F0EA89
:100720009E42F0E99D42F0E89C45F022E8600FEC23
:10073000C313FCED13FDEE13FEEF13FFD8F122BB44
:10074000010789828A830208535005E9F802079D50
:10075000BBFE05E9F802085F89828A8302086BBB49
:10076000010DE58229F582E5833AF58302085350AD
:1007700007E92582F802079DBBFE07E92582F802FA
:10078000085FE58229F582E5833AF58302086BBBB1
:10079000010789828A830207F25005E9F80207E619
:1007A000BBFE05E9F80208A422E6FC08E6FD08E61F
:1007B000FE08E6FF22E6FB08E6F908E6FA08E6CBC3
:1007C000F822BB010DE58229F582E5833AF5830223
:1007D000087B5007E92582F80207A9BBFE07E92537
:1007E00082F8020887E58229F582E5833AF58302DB
:1007F0000894ECF608EDF608EEF608EFF622ECF0B9
:10080000A3EDF0A3EEF0A3EFF022A8828583F0D051
:1008100083D082120815120815120815120815E463
:1008200073E493A3C583C5F0C583C8C582C8F0A38C
:10083000C583C5F0C583C8C582C822BB010DE5824A
:1008400029F582E5833AF5830207FE5007E9258200
:10085000F80208B0BBFE07E92582F80208C922E0C9
:10086000FCA3E0FDA3E0FEA3E0FF22E2FC08E2FD22
:1008700008E2FE08E2FF22E493FC740193FD740297
:1008800093FE740393FF22E0F8A3E0F9A3E0FAA338
:10089000E0FB22E2FB08E2F908E2FA08E2CBF822E8
:1008A000E493F8740193F9740293FA740393FB22AE
:1008B000ECF208EDF208EEF208EFF222D083D082DB
:1008C000E493F608740193F608740293F60874032F
:1008D00093F6740473D083D082E493F20874019386
:1008E000F208740293F208740393F2740473C0E084
:1008F000C0F0C083C082C0D075D00820F903020BBD
:100900001A30FD03020B1A20FB03020B1A20FC0312
:1009100002098D78B9E6F5FC53A1BFC2FF7510013D
:10092000AB12AA13A914851082758300120532F543
:1009300011C2FF43F92078BC76C308765020FF121D
:1009400020FA0F78BDE6161870011678BDE6184635
:1009500070EB30FA03020B1A8511FC0510AB12AADA
:1009600013A914851082758300120532F511C2FF98
:1009700043F92078BC76C308765020FF1220FA0F86
:1009800078BDE6161870011678BDE6184670EB784B
:10099000BDE6184670BC020B1A53A1BFC2FF75100A
:1009A00000C2FF43F92078BC76C308765020FF12BE
:1009B00020FA0F78BDE6161870011678BDE61846C5
:1009C00070EB20FB4085FC1130FA03020B1A74987F
:1009D0002510F8A6110510C2FF43F92078BC76C394
:1009E00008765020FF1220FA0F78BDE61618700125
:1009F0001678BDE6184670EB85FC1178BDE6184602
:100A000070C6020B1A85FC107897A610AB12AA13B9
:100A1000A914AF1005108F82758300120532F511ED
:100A2000C2FF43F92078BC76C308765020FF12201D
:100A3000FA0F78BDE6161870011678BDE6184670F4
:100A4000EB20FC03020AED7897E6FF54F064807017
:100A50006B74002FF582E43400F583E075F003A495
:100A60002456F582E43420F583E493F9740193FA73
:100A7000740293900180C9F0A3EAF0A3E9F030FA80
:100A800003020B1A900180E0FBA3E475F00112054C
:100A9000DCA9F0FA120519F5FCC2FF43F92078BC75
:100AA00076C308765020FFD620FAD378BDE6161814
:100AB00070011678BDE6184670EB80C220FA678593
:100AC00011FCAB12AA13A914AF1005108F82758305
:100AD00000120532F511C2FF43F92078BC76C30835
:100AE000765020FFD720FAD478BDE616187001168C
:100AF00078BDE6184670EB80C37897E6062498F830
:100B0000A6FCC2FF43F92078BC76C308765020FFCC
:100B10001220FA0F78BDE6161870011678BDE61897
:100B20004670EB30FAD3C2FF43F92043A14078A4CA
:100B30007601D0D0D082D083D0F0D0E032E49001E2
:100B400094F0900010E0FF900194E0C39F505EE0AD
:100B5000FB25E025E02423F582E43401F583120728
:100B6000FE00000000EB25E02443F582E43401F5AB
:100B700083E4F0A3F0900194E0FF25E02453F58294
:100B8000E43401F583E4F0A3F0900120E0FBA3E05E
:100B9000FAA3E0F975F004EFA4F58285F08312085A
:100BA0002F00000000900194E004F080951215B829
:100BB000E4900194F0900010E0FF900194E0FEC3F7
:100BC0009F5069EE25E025E02423F582E43401F509
:100BD00083C083C082E0FCA3E0FDA3E0FEA3E0FFAE
:100BE000900120E0FBA3E0FAA3E0F9900194E07506
:100BF000F004A4F58285F0831207B6EF2BFFEE3ADE
:100C0000FEED39FDEC38FCD082D0831207F2900162
:100C100094E025E02453F582E43401F583E475F093
:100C2000011205C6900194E004F08089C39001543C
:100C3000E09405900153E094005003020BA1E4906E
:100C40000194F0900010E0FF900194E0FEC39F40FB
:100C500003020D60EE25E02453F582E43401F583B0
:100C6000E0FEA3E0FBAA06E4F9F8900194E025E099
:100C700025E02423F582E43401F583E0FCA3E0FDC4
:100C8000A3E0FEA3E0FF12067D9001951207F2E4B7
:100C90007F787E69FDFC900195E0F8A3E0F9A3E080
:100CA000FAA3E0FBD312070F403E900195E0FCA3AE
:100CB000E0FDA3E0FEA3E02458FFEE349EFEED34F9
:100CC000FFFDEC34FFFC900194E0FB25E025E024DF
:100CD00000F582E43401F5831207F2EB25E0245598
:100CE000F876610876A8802E900194E0FB25E02537
:100CF000E02400F582E43401F5831207FE000000D1
:100D000000900195A3A3E0FEA3E0FFEB25E02455AE
:100D1000F8A60608A607900194E0FF25E02425F830
:100D2000E4F608F6EF25E02455F8E6FE08E6FFE0D5
:100D3000FD25E0246DF8A60608A607ED25E025E0D0
:100D40002423F582E43401F5831207FE000000003D
:100D5000900194E025E02453F582E43401F583E426
:100D6000F0A3F0900194E004F0020C37900097E0BB
:100D700004F022900019E0F5C290FB04EFF0787DBA
:100D80007604087604E4F5C375BB0F75B3A0F5AA25
:100D9000F5BEF5BF75E61890FB05743BF0E490FBDB
:100DA00009F090FB0A74F0F090FB0B7478F090FB64
:100DB0000CF090FB0D7401F0E4F5BC75BD4B900197
:100DC00095F0900010E0FF900195E0FEC39F502445
:100DD000900120E0FBA3E0FAA3E0F975F004EEA493
:100DE000F58285F08312082F00000000900195E045
:100DF00004F080CE900194740AF090FB0674FFF02A
:100E000090FB07F090FB08F0E4900195F090001043
:100E1000E0FF900195E0C39F504E121B3D900120D2
:100E2000E0FBA3E0FAA3E0F9900195E075F004A4DB
:100E3000F582E92582F9EA35F0FAC002C00112070D
:100E40003390FB00E0F8A3E0F9A3E0FAA3E02FFF62
:100E5000EA3EFEE93DFDE83CFCD001D002120783EA
:100E6000900195E004F080A5E490FB06F090FB076C
:100E7000F090FB08F0900195F0900010E0FF9001D9
:100E800095E0C39F5055121B3D900120E0FBA3E06D
:100E9000FAA3E0F9900195E075F004A4F582E92544
:100EA00082F9EA35F0FAC003C002C001120733909C
:100EB000FB00E0F8A3E0F9A3E0FAA3E0FBC3EF9B9B
:100EC000FFEE9AFEED99FDEC98FCD001D002D00324
:100ED000120783900195E004F0809ED2D89001948F
:100EE000E014F0E06003020DEEE4900195F0900054
:100EF00010E0FF900195E0C39F505FA31207FE0032
:100F0000004010900196E0FCA3E0FDA3E0FEA3E00A
:100F1000FFE47B4BFAF9F81205F29001961207F202
:100F2000900120E0FBA3E0FAA3E0F9900195E075C1
:100F3000F004A4F58285F0831207B6900196E0FCD8
:100F4000A3E0FDA3E0FEA3E0FF12067D900195E083
:100F50002465F8A607E004F08094229001947407B9
:100F6000F0FD75E61875CF1FE4F5C375BB0F75B3BB
:100F7000A090FB0674FFF090FB07F090FB08F09048
:100F80000194E0FF602274017E00A807088005C379
:100F900033CE33CED8F9FF90FB0AE0FBEF5B70084D
:100FA000900194E014F080D7ED601D74017E00A8DC
:100FB00005088005C333CE33CED8F9FF90FB0BE094
:100FC000FBEF5B70031D80E0900194E0FF7401A8CB
:100FD00007088002C333D8FC90FB0AF07401A8050F
:100FE000088002C333D8FC90FB0BF090FB0CF09010
:100FF00001951207FE00000000E4900194F09000BB
:1010000010E0FF900194E0FEC39F506574002EF540
:1010100082E43400F583E0FFF4604E900194E02414
:101020007DF8E690FB04F074652EF8E6F5BD121B22
:101030005390FB00E0FCA3E0FDA3E0FEA3E0FF90E3
:101040000195E0F8A3E0F9A3E0FAA3E0FBC31207DF
:101050000F501490FB00E0FCA3E0FDA3E0FEA3E032
:10106000FF9001951207F2D2D8900194E004F0802D
:101070008D900195E0FCA3E0FDA3E0FEA3E0FF78E6
:10108000081207207867A607900195A3A3A3E0FFA5
:1010900008A607900195E0F8A3E0F9A3E0FAA3E021
:1010A000FBC000900195E0FCA3E0FDA3E0FEA3E0FF
:1010B000FF7803120720D000EB2FFFEA3EFEE93D48
:1010C000FDE83CFC9001951207F2900195E0FCA32D
:1010D000E0FDA3E0FEA3E0FF7810120720900020BF
:1010E000EFF0900195E0FCA3E0FDA3E0FEA3E0FF9C
:1010F0007808120720900021EFF0900195A3A3A398
:10110000E0900022F022E490019DF0A3F0A3F0A370
:10111000F07815E6FE08E6FF900199EEF0A3EFF0F7
:10112000A3EEF0A3EFF0E4FFF9FE900010E0FDEE77
:10113000C39D5055EE25E02415F8E6FC08E6FDC3F6
:1011400090019AE09D900199E09C5011AF06EE2528
:10115000E02415F8E6FD08E6CDF0A3EDF0EE25E07D
:101160002415F8E6FC08E6FDD390019CE09D900173
:101170009BE09C4011A906EE25E02415F8E6FD0849
:10118000E6CDF0A3EDF00E80A1900098EFF0A3E97A
:10119000F0E4900199F0A3F0FE900010E0FDEEC3A2
:1011A0009D507AEE25E02415F8E6FC08E6FDD39480
:1011B00023EC940040069001A0E004F0D3ED942DC0
:1011C000EC9400400690019DE004F0D3ED9437ECE0
:1011D0009400400690019EE004F0D3ED9441EC941D
:1011E00000400690019FE004F0900098E06E6029B6
:1011F000EE25E02415F8E6FC08E6FDC390019AE030
:101200009D900199E09C5011AF06EE25E02415F861
:10121000E6FD08E6CDF0A3EDF00E02118D90009DE5
:10122000EFF09001A0E090009FF090019DE0900011
:101230009AF090019EE090009BF090019FE090005A
:101240009CF0224101B0FF4801A1000102040810F6
:10125000204050018301B90175010E010E010E01FC
:101260000E010E010E480177010204081020408093
:10127000610000000D11FFFFFFFFFFFFFFFFFFFFF9
:10128000FFFFFFFF02080FA000000032100C060055
:1012900000280A0402000000000000000301FFFF14
:1012A000000000AA00000000000000000064646468
:1012B000646464646400000000000000000000003A
:1012C000000000000000000000000000000000001E
:1012D00000000000000000000000000001B90175DE
:1012E000010E010E010E010E010E010E010E010E86
:1012F000010E010E000102030405060708090A0B8E
:101300000C0D0E0F01FFFF00008000000000000028
:1013100000000000000000000000000000000000CD
:1013200000000000000000000000000000000000BD
:1013300000000000000000000000000000000000AD
:10134000000000000000000000000000000000009D
:10135000000000000000000000000000000000008D
:10136000000000000000000000000000000000007D
:10137000000000FF00E4900193F0900010E0FF9067
:101380000193E0C39F4003021494900120E0FBA36B
:10139000E0FAA3E0F9900193E075F004A4F58285EA
:1013A000F083120753EC4D4E4F700302147B9001F3
:1013B00093E025E025E02400F582E43401F583E0A4
:1013C000F8A3E0F9A3E0FAA3E0FBD312070F400370
:1013D0007F0322900120E0FBA3E0FAA3E0F9900153
:1013E00093E075F004A4F58285F083120753900111
:1013F00093E025E025E02400F582E43401F583E064
:10140000F8A3E0F9A3E0FAA3E0FBC3EF9BFFEE9A99
:10141000FEED99FDEC98FC78C21207E6E47FFF7EB2
:10142000FFFDFC78C21207A9C312070F40037F0318
:101430002278C212079D900193E0FD25E02445F833
:10144000A60608A607ED25E02456F9ED25E024457B
:10145000F8E6FE08E6FFD397EE1997401BE025E07B
:101460002456F8C3EF96FFEE1896FEE025E02425FB
:10147000F8A60608A607801F900193E025E0242522
:10148000F8E4F608F68010900193E025E02425F8B2
:10149000E4F608F67F0322900193E004F002136E55
:1014A0007F0722E4FF12004EE4FCFDC004C005C02B
:1014B00006C0077825E6FE08E6FFE47B64FAF9F843
:1014C0001205F2D003D002D001D00012067D9001A7
:1014D00095EEF0A3EFF09001947401F0900010E00D
:1014E000FF900194E0F9C39F505EAF0112004EE4FB
:1014F000FCFDC004C005C006C007900194E025E0D3
:101500002425F8E6FE08E6FFE47B64FAF9F8120504
:10151000F2D003D002D001D00012067D900197EEE8
:10152000F0A3EFF0D3900196E09F900195E09E40EC
:101530000F900197E0FFA3E0900195CFF0A3EFF0AB
:10154000900194E004F08094E4900194F0900010F5
:10155000E0FF900194E0F9C39F5068AF0112004E84
:10156000E4FCFDC004C005C006C007900194E0255E
:10157000E02425F8E6FE08E6FFE47B64FAF9F812B9
:1015800005F2D003D002D001D00012067D90019761
:10159000EEF0A3EFF0900195E0FCA3E0FDC3EF9D1A
:1015A000FDEE9CFC900194E0FB25E02415F8A604D8
:1015B00008A605EB25E02435F8A60608A607E004F2
:1015C000F0808A2290001AE090019BF0E49001994B
:1015D000F0900010E0FF900199E0FEC39F5024902E
:1015E0000120E0FBA3E0FAA3E0F975F004EEA4F516
:1015F0008285F08312082F00000000900199E0041A
:10160000F080CE75E61875CF1F90FB0674FFF09042
:10161000FB07F090FB08F0900018E090FB04F090BE
:101620000020E0F5C3A3E0F5BBA3E0F5B3E4F5BC0F
:10163000787D7604087604900199F090019BE0FF94
:10164000900199E0C39F40030216BDE4A3F090000F
:1016500010E0FF90019AE0FEC39F5064E0FF246514
:10166000F8E6F5BD747D2FF8E690FB04F074002ECB
:10167000121B4A900120E0FBA3E0FAA3E0F99001DD
:101680009AE075F004A4F582E92582F9EA35F0FACA
:10169000C002C00112073390FB00E0F8A3E0F9A3F9
:1016A000E0FAA3E02FFFEA3EFEE93DFDE83CFCD076
:1016B00001D002120783D2D890019AE004F0808E04
:1016C000900199E004F002162F75E61875CF1F22DD
:1016D0009001937408F0121497121BD9BF010A905D
:1016E0000092E0FF12007680030217C47F02121FEF
:1016F000DED3788EE69F18E69E400280157887E656
:10170000FE08E6FFD39400EE94004014EF64014E0F
:101710007006121F840217BF7888E616187001162B
:10172000900092E09001B0F02410605414605F24A7
:10173000F27073786DE6FE08E6FF08E6FC08E6FD49
:10174000122161D3EF9464EE9400400A789406E687
:10175000187009068006E47893F608F67F07121FD2
:10176000DED37894E69F18E69E40069001937403BA
:10177000F0121F84E47885F608F608F608F6805023
:10178000121F847888E6184670467F06800C121F68
:10179000847888E6184670387F04121FDE7887A6A2
:1017A0000608A607802AE47887F608F69001B0E0DC
:1017B000FF121D95788606E6187001067F05121F38
:1017C000DED37886E69F18E69E400512000E800064
:1017D000900193E0FF2212202E1221869000907437
:1017E00001F0122006121DE8121EED43D40843DC5E
:1017F0000853E4F7D2B390009E74FFF0121F5543D4
:10180000D40343E40343B003900090E024FD60312F
:1018100014603924FE604E1460551460652407700E
:101820006712214A122006121D3F12000312000EF9
:10183000121F557F0A121FDE7895A60608A607809C
:1018400041121D3F12000312000E80369001ABE0E2
:1018500004F070069001AAE004F01215B890009010
:101860007406F08023121369900090EFF080191233
:1018700016C4900090EFF078A5E678B9F6121A97A2
:1018800080069000907404F09000FBE06029E478FA
:10189000A4F6C2B3F0900175F0A3F0900176E004D5
:1018A000F07006900175E004F0900175E07004A3FB
:1018B000E0645070E6D2B378A4E6600678A5E6440A
:1018C00008F6D2D8121E7B0217FC43F580C2DC005A
:1018D00020DCF790FF03E493FFF4FE90FF02E49313
:1018E000FDB506048D9A8003759A4C90FF05E4932C
:1018F000FFF4FE90FF04E493FDB506048D8480039D
:1019000075840490FFFEE493FFF4FE90FFFFE493E0
:10191000FDB506048D8F8003758F2543C60C90009E
:10192000007F007E04E4F0A3DFFCDEFA78FFE4F63B
:10193000D8FD7581C502196A0200000217CAE49336
:10194000A3F8E493A34003F68001F208DFF48029B2
:10195000E493A3F85407240CC8C333C4540F4420A1
:10196000C8834004F456800146F6DFE4800B010290
:10197000040810204080901237E47E019360BCA3DD
:10198000FF543F30E509541FFEE493A360010ECFDE
:1019900054C025E060A840B8E493A3FAE493A3F808
:1019A000E493A3C8C582C8CAC583CAF0A3C8C582C8
:1019B000C8CAC583CADFE9DEE780BE1210FA90000C
:1019C00010E0FF900091E0FEC39F5013EE25E0244D
:1019D00036F9C3E7943219E794004003E0FF229000
:1019E0000098E0FE25E02416F9D3E7943219E79435
:1019F000004009900091E0FFF46004227FFF22D3B1
:101A0000796EE778709619E718964007E490019888
:101A1000F080069001987401F0900198E06E70409B
:101A2000786DE6FE08E6FF08E6FC08E6FD12216197
:101A3000900196EEF0A3EFF07845E6FE08E6FF0889
:101A4000E6FC08E6FD122161900197E02432FD904A
:101A50000196E03400FCC3EF9DEE9C50407FFF22D6
:101A6000900098E025E02445F8E6FC08E6FD9001AA
:101A700098E025E02446F9D3E79D19E79C40037FD1
:101A8000FF22900098E025E0246EF8E62432FF184B
:101A9000E436FEC3ED9FEC9E50037FFF229000983A
:101AA000E0FF22E4900193F0900193E0FFC39402E1
:101AB0004003021B3CEF25E02435F8E6FE08E6FF74
:101AC000D39414EE94004002801F900193E0FF2510
:101AD000E02436F9EF75F008A424ACF8E627FF18E7
:101AE000E61937C313FEEF13FFE075F008A424AB2B
:101AF000F8A60608A607900193E0FF25E02425F844
:101B0000E6FC08E6FDEF75F008A424ADF8A604088D
:101B1000A605900120E0FBA3E0FAA3E0F990019371
:101B2000E075F004A4F58285F0831207537808125B
:101B30000720900193E075F008A424AFF8A60608EA
:101B4000A607E004F0021A9C22E0FF247DF8E6904C
:101B5000FB04F074002FF582E43400F583E0FFEF1E
:101B6000131313541FFEEF54079020FB93FDEFD384
:101B7000941740037F0022EE14600F1460142402B7
:101B80007018ED42E1ED42D98013ED42E2ED42DA08
:101B9000800BED42E3ED42DB80037F0022EF442027
:101BA000F5E675C70D00000000000043C101E5C166
:101BB00030E1FB53C1FD75E618EE14600F1460149C
:101BC00024027018EDF452E152D98013EDF452E280
:101BD00052DA800BEDF452E352DB80037F0022E403
:101BE000F5C77F01221219AF900194EFF0F4706DE8
:101BF000A3F0900010E0FF900195E0FEC39F505DC0
:101C0000EE25E0246DF8E6FE08E6FFE4FCFD78BE74
:101C10001207E6E47F1FFEFDFC78BE1207A912053D
:101C2000F2C004A905AA06AB07900195E025E024BF
:101C300045F8E6FE08E6FFE4FCFDD000EB2FFFEAE6
:101C40003EFEED39FDEC38FC7805120720E025E07A
:101C5000246DF8A60608A607E004F080959001948C
:101C6000E0FF121F23EF7002FF227F0122C0E0C0BD
:101C7000F0C083C082C0D075D000C000C004C005D1
:101C8000C006C007C28D758CFD758A869001B2E0D2
:101C900004F070069001B1E004F09001B1E0FEA301
:101CA000E0FF7C077DD0120571ED4C70259001AAF4
:101CB000E0FEA3E0FFD3940AEE940040089001AC4C
:101CC000EEF0A3EFF09001AAE4F0A3F09001B1F0E0
:101CD000A3F0D007D006D005D004D000D0D0D08259
:101CE000D083D0F0D0E032900019E0F5C290001817
:101CF000E090FB04F0900020E0F5C3A3E0F5BBA367
:101D0000E0F5B3E4F5AA900014E0F5BEA3E0F5BF5A
:101D1000A3E0F5BCA3E0F5BD75E61890FB05743BA8
:101D2000F090FB0674FFF090FB07F090FB08F0E4E6
:101D300090FB09F090FB0A74F0F090FB0B7478F0C4
:101D400090FB0CF090FB0D7401F02290009174FF59
:101D5000F0A3F0E4A3F07885F608F67889F608F6A3
:101D600008F608F608F608F608F608F67887F60882
:101D7000F67893F608F6FF900010E0FEEFC39E5051
:101D80001F900120E0FBA3E0FAA3E0F975F004EF57
:101D9000A4F58285F08312082F000000000F80D781
:101DA00022E4FE900010E0FDEFC39D501E900091D4
:101DB000E06F6017E47885F608F674A12FF582E4E9
:101DC0003401F583E0FE900091EFF0900091E0FF88
:101DD00090009EE06F6014EF14600304700D90009B
:101DE000FBE0700704F0EE0478A5F6900091E09017
:101DF000009EF022E478A5F608760308F608F6FFC0
:101E0000EF75F008A424A9F87600087632EF75F093
:101E100008A424ABF8E4F608F6EF75F008A424ADA6
:101E2000F8E4F608F6EF75F008A424AFF8E4F60835
:101E3000F60FEFB402CA7512007513007514A522CF
:101E4000EF131313541FFEEF54072477F582E43485
:101E500001F583E0FFEE14601214601A2402702171
:101E6000EF42E1EF42D9EF42D18019EF42E2EF4277
:101E7000DAEF42D2800EEF42E3EF42DBEF42D38053
:101E8000037F00227F01227898E6FF6032E4F6EFBC
:101E900024E0600C24A0600D247070237F01800278
:101EA000E4FF022118121FB212213212207A53DCF1
:101EB000F753E4F753D4F7D2B39000907401F022B3
:101EC000E4FEEE75F003A42403F582E43421F583E7
:101ED000E493FDF4601FEFB50516EE75F003A4243E
:101EE00004F582E43421F583E493FE740193FF2228
:101EF0000EEEB407CDE4FEFF227E007FE0E4FDEDB0
:101F000025E0249DF582E43420F583E493F4601EFB
:101F1000ED25E0249EF582E43420F583E493FCEF84
:101F20002DF582E43EF583ECF00DEDB410D1229056
:101F3000001FE0FE900092E06F6005EFF0E4A3F078
:101F4000900092E0B4FF02E4FEAF06900093E0043C
:101F5000F0C39F50037F00229000937404F07F0130
:101F60002243B14053FAF790FFF8E493B4F80B43DF
:101F7000FA0443F90243F901800343FA0443F902E6
:101F800043F90153F9BF75FB4053FAFD43A14022C9
:101F9000E47885F608F690009174FFF090009EE0DA
:101FA000FFF46013EF14600304700C9000FB7401E5
:101FB000F078A5E64408F690009E74FFF022E4F560
:101FC000D9F5D1F5E1F5D57580FFF5DAF5D2F5E271
:101FD000F5DD7590FFF5DBF5D3F5E3F5E575A0FFCD
:101FE00043DC0843E40853D4F7229000E0EFB4FF49
:101FF000057F017E0022E5822FF582E43583F5839B
:10200000E0FB9001ACE0FCA3E0FDAF037E00120515
:102010005F22E4900097F09001AAF0A3F09001AC49
:10202000F0A37420F090002A74FFF0900120740156
:10203000F0A37400F0A374A0F02243850343910140
:1020400053E12053D52053802053E23C53DD3C53D1
:10205000903C53E30353E50353A00353E40B53B005
:102060000B2200004500006D00005500005D0000DF
:102070001500001D00002500002D010091000065E5
:1020800000007D000067AFD653C7FBE4F5D6C2D988
:1020900053A1EF539AF05391FE5387FC43870200FC
:1020A000004391018FD60221770002010102010352
:1020B000010401051E06050702080A09020A020BAF
:1020C000280C3C0D1E0E01FF01E4FD900010E0FF06
:1020D000EDC39F501274002DF582E43400F583E0C7
:1020E000FF121E340D80E422438901C28DD2A95310
:1020F000B7FD53B8FDE49001B1F0A3F0758CFD7508
:102100008A86D28CD2AF22010204081020408001BE
:102110000521060995020CF10C0F411411A80416B3
:1021200062FF00FFEFB40111C293C2927F0A121F37
:10213000DE7895A60608A60722D293D2922243DC27
:102140000843E40853D4F7D2B353B2FDE4F5BA53CD
:1021500091DF43A1022275C60CE4F5C7F5C175CE27
:102160004275D6061221771220DCD2AF22D3EF9D22
:10217000EE9C4007EF9DFFEE9CFE22C3ED9FFFEC1F
:102180009EFE22D2DFC2DA538E1F438EA0D2D8D257
:10219000D92275AD0C53DAF3D293D2922253B2DF27
:0C21A00032FFFFFFFFFFFFFFFFFFFFFF0C
:00000001FF
